:100000000C94AC000C94380C0C94110C0C94D4008F
:100010000C94D4000C94D4000C9455050C94D4008A
:100020000C94D4000C94D4000C94D4000C94D40000
:100030000C94D4000C94D4000C94D4000C94D400F0
:100040000C94C70B0C94D4000C94900A0C946A0A7C
:100050000C94D4000C94D4000C94D4000C94D400D0
:100060000C94D4000C94D400E002A802E002E00258
:10007000B302C502D602322E322E302D72632E31DB
:100080000A00207C5F5C2F602C0A0702200220B24D
:1000900087100340012000240222100222020220C5
:1000A0000222002220020220222710134101010116
:1000B0000322203040203052034022140203105209
:1000C00024022171010010101210122210100224BB
:1000D0000101032203002001010032203712100128
:1000E00021322601284032221210121222432224E9
:1000F000121001222470C122240F0F0000000025DD
:100100000028002B0000000000240027002A000027
:100110000000002300260029000404040404040451
:1001200004020202020202030303030303010204A6
:100130000810204080010204081020010204081069
:100140002000000008000201000003040700000076
:100150000000000000007D0D11241FBECFEFD8E08D
:10016000DEBFCDBF11E0A0E0B1E0E8E3F0E202C005
:1001700005900D92A238B107D9F722E0A2E8B1E0CC
:1001800001C01D92AD3AB207E1F710E0CCEAD0E031
:1001900004C02197FE010E940010CB3AD107C9F795
:1001A0000E94740C0C941A100C9400008091910120
:1001B0008460809391018091920180788093920174
:1001C000E0918301F0918401309709F0099408953A
:1001D000E1E9F1E08081877F8F7E808310928D013D
:1001E00010928E0110928F01109290010E94850B47
:1001F0006093960170939701809398019093990171
:1002000044E050E060E070E08CE991E00C94230F52
:10021000FC01838187708860838384818F71806211
:1002200084836783CF0108950F931F93CF93DF9348
:10023000EC016115710561F0FB0101900020E9F707
:100240003197E61BF70BE931F10518F0E9E101C040
:10025000E0E00E2F10E0C80123E0880F991F2A95D7
:10026000E1F79B819770892B8B838C818F718C83B5
:10027000EE2329F0A801CE0107960E940B10FE0183
:10028000E00FF11F1782CE01DF91CF911F910F91E7
:100290000895E0918701F0918801309721F0028064
:1002A000F381E02D09958091910184FD0C94FF0567
:1002B00008950F931F930E94850B0091890110915F
:1002C0008A0120918B0130918C01601B710B820B94
:1002D000930B1F910F9108959C018091870190913C
:1002E00088018217930751F0909191019F7190932B
:1002F0009101309388012093870105C0809191017D
:10030000805E80939101E0918701F09188013097A0
:1003100021F00190F081E02D09950E94850B6093FA
:10032000890170938A0180938B0190938C010895C9
:100330000F931F930E94590120919201207720373B
:1003400029F000E117E220E030E004C000E61AEEF8
:1003500020E030E0061717072807390730F489E155
:1003600091E01F910F910C946C011F910F910895D2
:10037000809192018F708B3020F085E191E00C9498
:100380006C010895809193018F3FA1F00E94850B2D
:1003900060938D0170938E0180938F0190939001F3
:1003A0008091930190919E01891380939E0181E138
:1003B00091E013C00E945901613D7740810591058C
:1003C00070F080919101803618F48DE091E005C0C5
:1003D000877F8093910185E191E00C946C010895F1
:1003E00080919C018F3F19F08DE091E010C00E9438
:1003F0005901613D77408105910558F08091910147
:10040000803618F489E091E002C08EE191E00C940E
:100410006C0108950E945901613D77408105910565
:1004200020F48091910181FF089580919D018F3F7B
:1004300041F0809191018E7F8093910189E091E05C
:1004400009C080919101803618F485E191E002C0E5
:100450008EE191E00C946C0190E59CBD1DBC2A9846
:10046000E0E1F0E03197F1F78EBD00000DB407FE3A
:10047000FDCF8EB5FB019FEF4150C8F0222361F004
:100480009EBD00000DB407FEFDCF8EB56115710550
:1004900099F380833196F0CFDF01119680818EBD74
:1004A00000000DB407FEFDCF8EB5FD01E5CF2A9A01
:1004B000E0E1F0E03197F1F70895CF93DF931F92D9
:1004C000CDB7DEB7698320E041E0BE016F5F7F4FAB
:1004D0000E942C020F90DF91CF910895809192019C
:1004E000982F9077903759F0982F92959F709F5F33
:1004F00097709295907F8F78892B8093920180914D
:1005000091018B7F8F7E8093910129986CE080E22E
:100510000C945D026FE080E20E945D026091080130
:100520006F3F19F08AE20E945D02299A089521E046
:1005300041E060E070E00C942C028730910528F4D3
:10054000FC01EC5CFF4F0C94001080E090E00895FB
:1005500088E00E9497028F70282F38EF3203C00185
:1005600011244D97089586E00E949702282F30E0CD
:100570003595279520953095237033274AEF420310
:10058000C001439F900D1124089586E00E949702B8
:10059000282F30E0359527953595279523703327FB
:1005A00089E1829F800D112490E00895809194014B
:1005B0009091950124E0959587952A95E1F7089506
:1005C00080E09FEF0895CF9386E00E949702C82FA6
:1005D00085E00E94970221E08C3409F020E081E060
:1005E000C53209F080E08223CF91089520E040E0F9
:1005F00060E070E00C942C02CF92DF92EF92FF92B9
:100600001F93CF93DF937C01FC01C2818091910104
:1006100080FF04C0CF3F09F05BC014C0C11103C00C
:10062000C0919D010FC0CF3F69F08C2F90E00396E1
:100630000E94330F8F3F29F480919D01F701908133
:100640009813C82F80919C01F7018083438142FD5C
:1006500006C0469546954695D7E0D40F01C0D0E236
:1006600010919F011170299880E091E00197F1F7B6
:100670006EE080E20E945D0284EC90E00197F1F769
:100680006C2F8AE20E945D026C2F80E30E945D0263
:1006900081EE0E94F602CF3F21F0111102C080EAE4
:1006A00001C080EB4D2FD13208F040E220E0B701CD
:1006B0000E942C02299AE12CF12C8FEF0E94F60265
:1006C000D82F807339F4F1E0EF1AF108B1F702C0C6
:1006D00010E05EC0299860E387E20E945D02D4FFCB
:1006E00003C081EE0E94F6020E948A02D5FD02C07C
:1006F000117001C011E081E0CF3F09F080E0182BBC
:1007000080919D01C81344C090919201111108C0BD
:1007100081E0890F8F70907F982B9093920138C061
:10072000907F9093920181E090E00E949D02EC0105
:100730006091940170919501072E000C880B990B24
:100740000E942A0E23E333E343E75FE30E94650E32
:100750006B017C01CE0124E0880F991F2A95E1F7F7
:10076000BC01990F880B990B0E942A0E2DEC3CECD2
:100770004CE45DE30E94650E9B01AC01C701B6012C
:100780000E945E0F0E94CA0F7093950160939401BE
:10079000812FDF91CF911F91FF90EF90DF90CF904D
:1007A00008952091910122FD0C94FC0280E00895AF
:1007B000CF932FE043E06FEF80E00E94480A60E8AB
:1007C00071E00E941401E2E6F2E0838187708061AB
:1007D000838384818F71806C848381E0878310861A
:1007E000CF010E94D1038FE00E94910B22E140E0F3
:1007F0006FEF80E00E94480A6CE571E00E941401EE
:100800000E94D103C0919D0126E043E06FEF80E09C
:100810000E94480A6C2F0E9408010E94D10386E0C2
:100820000E94910BCF910C945F05CF93809186012C
:1008300081FD1FC00E94D803809186018160809352
:100840008601C4E02AE143E06FEF80E00E94480A9D
:1008500062E00E9408010E94D1038BE10E94910B8B
:10086000811102C0C15071F780918601826080932E
:100870008601CF9108958FEF80939301E1E9F1E034
:1008800080818860808328E143E06FEF80E00E94F0
:10089000480A61E00E9408010C94FC0280919C01CE
:1008A0008F3F61F423E043E06FEF80E00E94480A4D
:1008B00060E871E00E9414010C94FC020895E1E9E3
:1008C000F1E08081897F81608083ECE9F1E08FEF46
:1008D0008283818327E043E06FEF0E94480A60E84B
:1008E00071E00E9414010C94FC021F93CF93DF93DC
:1008F000219A229A29982A9ADFB7F8948091820146
:1009000081113FC023E231E0F901849147E351E0D6
:10091000FA01649190E0880F991F8B5F9E4FFC0154
:10092000A591B4918C916823D1F4EBE4F1E084912A
:10093000FA011491F901C491CC2389F081110E942C
:10094000C20AEC2FF0E0EE0FFF1FE550FF4FA5911C
:10095000B4918FB7F8944C91412B4C938FBF61E0C9
:100960008AE00E940F0B8CB580618CBD8CB58064D1
:100970008CBD61E08DE00E940F0B61E08BE00E9476
:100980000F0B809182018F5F80938201DFBF6EE049
:1009900080E20E945D0265E070E080E090E00E94ED
:1009A0004B0B63E083E20E945D026FE584E20E94EC
:1009B0005D026CE485E20E945D0265E286E20E94CF
:1009C0005D0263E780E50E945D0264E08DE30E94C2
:1009D0005D020E94E302882309F460C062E082E2C3
:1009E0000E945D0260E081E20E945D0263E08CE3B0
:1009F0000E945D02DFEFD093030120E045E063E059
:100A000071E08BE20E942C0220E045E063E071E09F
:100A10008AE20E942C0220E045E063E071E080E37E
:100A20000E942C0282EE0E94F60281EE0E94F602E3
:100A300060E787E20E945D0280919101806180936E
:100A4000910180919F018E7F80939F0181E080932F
:100A50009C0161E080E090E00E944B0FC0919C01FE
:100A6000CF3FC9F08FEF8C0F8E3F90F4C0930801F9
:100A700063E082E20E945D0261E081E20E945D0229
:100A80000E948A026C2F80E090E00E944B0F03C00E
:100A9000D0939C0103C085E191E002C08EE191E01A
:100AA000DF91CF911F910C946C011F920F920FB6A2
:100AB0000F9211240F900FBE0F901F9018952BE0EE
:100AC00043E06FEF80E00E94480A67E671E00E9411
:100AD00014010E94D1032CE043E06FEF80E00E94FC
:100AE000480A67E771E00E9414010E94D10321E0E7
:100AF00040E061E080E00E94480A60E871E00E9406
:100B000014010C94D103CF92DF92EF92FF92CF9316
:100B100080911D01811122C00E94EB0AC1E0019762
:100B200009F0C0E0C0939B0180919A01C81336C0C0
:100B30000E94850BC0905E02D0905F02E090600240
:100B4000F0906102DC01CB018C199D09AE09BF094F
:100B5000803C944DA140B10508F547C00E94850B2B
:100B60006B017C010E94850BDC01CB018C199D0976
:100B7000AE09BF09843F9140A105B10520F4A895B5
:100B80000E944901EFCF0E94EB0A21E0019709F092
:100B900020E020939B0110921D0127C00E94850B2D
:100BA00060935E0270935F02809360029093610293
:100BB000CC23C1F065E671E08DE392E00E94140160
:100BC000FC0180919C0181839481907F916094834A
:100BD0008091860180FF03C0CF010E94D103C093A2
:100BE0009A0103C069E771E0E7CFCF91FF90EF90E2
:100BF000DF90CF90089560E083E00C940F0B3F925C
:100C00004F925F926F927F928F929F92AF92BF921C
:100C1000CF92DF92EF92FF920F931F93CF93DF93C8
:100C200000D0CDB7DEB70E94850B009196011091E0
:100C300097012091980130919901DC01CB01801B33
:100C4000910BA20BB30B813A9B4BAD40B10590F0D9
:100C50000E94850B60939601709397018093980191
:100C6000909399010E94E302811104C08EE191E00A
:100C70000E946C0126E0322E00E010E030E0E32E0E
:100C800030E0F32E41E2D42E87E10E94970280FDEE
:100C9000B9C23A94332009F4B5C221E041E060E0E2
:100CA00070E080E60E942C02882E30E2381720F493
:100CB00082EE0E94F602812C21E0482D63E872E06A
:100CC00081E60E942C0260E487E20E945D0290911E
:100CD0008602292F2695269526952A3108F029E1A6
:100CE00092FD03C087E0820F01C080E290908702EE
:100CF00050918802C0908402B0908302A090850237
:100D00008812C2CF9370923009F0BECF80919D01BE
:100D1000B81671F080919C01C81651F08C2D90E0AE
:100D20006B2D039629835A830E944B0F5A81298188
:100D3000392D3770932E80919201806880939201B3
:100D400080919C01A8125AC040918602842F8695FA
:100D5000869586958A3108F089E138E0839FC00145
:100D600011244770842B80938602E22FF0E0ED5728
:100D7000FD4F17828091870283FF19C0E3E8F2E0FC
:100D8000A2E6B2E08D2D01900D928A95E1F7809157
:100D90006602877F806180936602A0926302C092A0
:100DA000640282E692E05A830E94D1035A818091C4
:100DB000870284FD1AC093E0991217C090918802AF
:100DC00021EF290F233008F0C5C05ECF913009F420
:100DD0004DC19A3009F469C19C3109F455CF5E3197
:100DE00009F452CF5D3109F485C10115110509F4EB
:100DF0004BCF83E892E00E94000046CF8FEFA8120D
:100E000090C093E039137FC08091910182FF5EC052
:100E1000573009F05BC080919D01C81609F434CFAA
:100E20000E94850B40908D0150908E0160908F0143
:100E300070909001DC01CB0184199509A609B709CE
:100E400080319742A105B10520F18091910183FD88
:100E50001BCF90919C0191118BC1109293018091B5
:100E60009101877F80939101B09093018FEFB81625
:100E700009F40ACF0E94850B60938D0170938E0157
:100E800080938F019093900180919E01B812B0924F
:100E90009E010E94850B60938D0170938E0180935B
:100EA0008F01909390010E94850B7370882799277A
:100EB0000E944B0BB0909E0128E043E06FEF8C2D19
:100EC0000E94480A6B2D0E94080141C0583009F465
:100ED000DBCE5431C1F480919D01B81214C00E9440
:100EE000850B7370882799270E944B0BA0909D015A
:100EF00025E143E06FEF8C2D0E94480A6A2D0E9485
:100F000008010E94FC0280919D01B812BDCE809123
:100F10009C01C81609F472C18091910182FD61C1E2
:100F20006DC18091910182FFAFCE93E039130DC066
:100F30005851523050F40E94570A8E3F31F061E010
:100F4000680F83E892E00E94080183E892E00E9423
:100F5000FC029ACE543009F497CE5830C9F4B090C0
:100F60009101B0FE91CE0E94570A8F3F09F48CCEBA
:100F70008F5F8F3F09F488CE90919E01891708F00A
:100F800083CEB1FC81CE80939E01C0929D017CCE28
:100F9000583141F429E143E06FEF8C2D0E94480A5B
:100FA00061E091CF593161F48091910183FF6CCE62
:100FB000877F809391010E94570A8093930164CEAA
:100FC00020918402211192C09D3059F498E088E16B
:100FD0000FB6F894A895809360000FBE90936000C0
:100FE000FFCF9B3169F40E94570A91E0811101C043
:100FF00090E08091860190FB80F98093860144CE39
:10100000963099F490918A0281E0992319F09D34E9
:1010100009F080E08093850141E050E063E071E0F9
:1010200085E891E00E943B0F2FCE933119F40E9486
:10103000D8032ACE923109F0C9CE0E9459014B0142
:101040005C0126E143E06FEF80E00E94480AFC016A
:1010500084818F71806A84838381877080628383B7
:1010600087829086A186B286CF013DC0E114F1044B
:1010700009F40ACE829586958770853049F460918F
:101080008A0270918B0280918C0290918D020AC02D
:10109000811105C08AE892E00E94E40D03C060E07F
:1010A00070E0CB010E940000EFCD80918A02833472
:1010B00009F0EACD93E0A92EB12C6FEFC5010E9493
:1010C0004B0F2FEFA21AB20A33E0A31631E0B3069A
:1010D000A1F72AE043E06FEF80E00E94480A6BE747
:1010E00071E00E9414010E94D103CECD9A3109F023
:1010F00076CECACD30918A0280918B02813211F076
:10110000E0EB11C02EE143E06FEF80918302398361
:101110000E94480A6FEF0E9408010E94FC02398178
:10112000882381F0E0EDE30FE43230F4F0E0EA5D93
:10113000FE4F808190E002C087E090E00E949D0217
:101140005C0103C0A12CBB24BA942FE143E06FEFF4
:1011500080E00E94480AFC0184818F71806484834E
:101160009381977090619383B086A782CF01EFCE71
:10117000886080939101A092930128E143E06FEF92
:1011800080E00E94480A61E00E9408010E94FC027F
:101190000E94850B4B015C0110928802712C0E9409
:1011A000850BDC01CB0188199909AA09BB09803D8F
:1011B0009740A105B10508F052CE711050CE809134
:1011C000910184FD0E94FF05A89580918702877098
:1011D000833029F777247394809188028931F1F65E
:1011E000DECF83E892E00E94FC0223E0921609F42D
:1011F0004BCD80919D01B81247CDF7CD83E0981279
:10120000F4CD42CD0F900F90DF91CF911F910F91B0
:10121000FF90EF90DF90CF90BF90AF909F908F9016
:101220007F906F905F904F903F900895CF92DF92A4
:10123000EF92FF920F931F93CF93DF936C017A018C
:101240008B01C0E0D0E0CE15DF0589F0D8016D91AB
:101250008D01D601ED91FC910190F081E02DC60148
:101260000995892B11F47E0102C02196ECCFC701AC
:10127000DF91CF911F910F91FF90EF90DF90CF9072
:101280000895089580E090E00895FC01538D448D09
:10129000252F30E0842F90E0821B930B541710F021
:1012A000CF96089501970895FC01918D828D98172E
:1012B00061F0828DDF01A80FB11D5D968C91928D3A
:1012C0009F5F9F73928F90E008958FEF9FEF089537
:1012D000FC01918D828D981731F0828DE80FF11D00
:1012E000858D90E008958FEF9FEF0895FC01918D1B
:1012F000228D892F90E0805C9F4F821B91098F7314
:101300009927089580EA91E00E94760921E0892BCF
:1013100009F420E0822F0895FC01848DDF01A80FDD
:10132000B11DA35ABF4F2C91848D90E001968F730D
:101330009927848FA689B7892C93A089B1898C912C
:1013400080648C93938D848D981306C00288F389F2
:10135000E02D80818F7D80830895EF92FF920F931F
:101360001F93CF93DF93EC0181E0888F9B8D8C8D51
:10137000981305C0E889F989808185FD24C0F62E7F
:101380000B8D10E00F5F1F4F0F731127E02E8C8D18
:10139000E8120CC00FB607FCFACFE889F989808102
:1013A00085FFF5CFCE010E948C09F1CF8B8DFE0118
:1013B000E80FF11DE35AFF4FF0820B8FEA89FB899A
:1013C0008081806207C0EE89FF896083E889F9899E
:1013D00080818064808381E090E0DF91CF911F91D4
:1013E0000F91FF90EF900895CF93DF93EC01888DDC
:1013F0008823C9F0EA89FB89808185FD05C0A88919
:10140000B9898C9186FD0FC00FB607FCF5CF80819E
:1014100085FFF2CFA889B9898C9185FFEDCFCE01E8
:101420000E948C09E7CFDF91CF91089580E090E092
:10143000892B29F00E94820981110C9400000895E3
:101440003FB7F8948091A9029091AA02A091AB02B3
:10145000B091AC0226B5A89B05C02F3F19F00196AC
:10146000A11DB11D3FBFBA2FA92F982F8827820F2A
:10147000911DA11DB11DBC01CD0143E0660F771F79
:10148000881F991F4A95D1F7089508950E94061064
:10149000E2E6F2E090919C0191838283668325834A
:1014A00047708481807E482B4483CF0108958091CA
:1014B0008702829586958770813019F480918A021F
:1014C0000895811105C08AE892E00E94C60D089532
:1014D00080E008951F920F920FB60F9211242F9360
:1014E0003F934F935F936F937F938F939F93AF93AC
:1014F000BF93EF93FF9380EA91E00E948C09FF91E4
:10150000EF91BF91AF919F918F917F916F915F917B
:101510004F913F912F910F900FBE0F901F901895F4
:101520001F920F920FB60F9211242F938F939F93B8
:10153000EF93FF93E091B001F091B1018081E091D0
:10154000B601F091B70182FD12C090818091B9017E
:101550008F5F8F732091BA01821751F0E091B9012A
:10156000F0E0E056FE4F958F8093B90101C0808175
:10157000FF91EF919F918F912F910F900FBE0F9040
:101580001F901895833081F028F4813099F08230D3
:10159000A1F008958730A9F08830B9F08430D1F4F3
:1015A000809180008F7D03C0809180008F77809331
:1015B0008000089584B58F7702C084B58F7D84BD87
:1015C00008958091B0008F7703C08091B0008F7D27
:1015D0008093B0000895CF93DF93E4E4F1E0849129
:1015E000E0E3F1E0D491ECE1F1E0C491CC2391F09F
:1015F00081110E94C20AEC2FF0E0EE0FFF1FE15FA5
:10160000FE4FA591B491EC91ED2381E090E021F49F
:1016100080E002C080E090E0DF91CF910895CF9309
:10162000DF9390E0FC01E35DFE4F2491FC01E75E57
:10163000FE4F8491882361F190E0880F991FFC018F
:10164000EB5FFE4FC591D491FC01E550FF4FA59192
:10165000B491611109C09FB7F894888120958223C5
:101660008883EC912E230BC0623061F49FB7F8940D
:101670003881822F809583238883EC912E2B2C93A5
:101680009FBF06C08FB7F894E8812E2B28838FBFA9
:10169000DF91CF9108958F929F92AF92BF92CF9298
:1016A000DF92EF92FF926B017C010E94200A4B01B6
:1016B0005C01C114D104E104F104F1F00E94200A9C
:1016C000DC01CB0188199909AA09BB09883E93401E
:1016D000A105B10570F321E0C21AD108E108F108B3
:1016E00088EE880E83E0981EA11CB11CC114D104A1
:1016F000E104F10419F7DDCFFF90EF90DF90CF9078
:10170000BF90AF909F908F9008952FB7F8946091FD
:10171000A5027091A6028091A7029091A8022FBF06
:101720000895CF92DF92EF92FF92CF93DF93D82F5D
:101730000E94850B6B017C0181E0D11180E08093D8
:101740008802C0E00E94850BAB01BC014C195D0909
:101750006E097F09403D57406105710580F4C11154
:101760000EC0A8950E94490190918702977093300E
:1017700049F7C1E0809188028D13E3CFE3CF8C2F2E
:10178000DF91CF91FF90EF90DF90CF9008951F925F
:101790000F920FB60F9211242F933F938F939F9325
:1017A000AF93BF938091A5029091A602A091A7024A
:1017B000B091A8023091A40226E0230F2D3720F427
:1017C0000296A11DB11D05C029E8230F0396A11D96
:1017D000B11D2093A4028093A5029093A602A0932A
:1017E000A702B093A8028091A9029091AA02A091A9
:1017F000AB02B091AC020196A11DB11D8093A9026C
:101800009093AA02A093AB02B093AC02BF91AF91A8
:101810009F918F913F912F910F900FBE0F901F902E
:1018200018951F920F920FB60F9211242F933F938A
:101830004F935F936F937F938F939F93AF93BF93D8
:10184000EF93FF93E0912401F09125010995FF9119
:10185000EF91BF91AF919F918F917F916F915F9128
:101860004F913F912F910F900FBE0F901F901895A1
:101870001F920F920FB60F9211242F933F934F9305
:101880005F936F937F938F939F93AF93BF93EF93E8
:10189000FF93E0912201F09123010995FF91EF91CF
:1018A000BF91AF919F918F917F916F915F914F9178
:1018B0003F912F910F900FBE0F901F901895CF93CF
:1018C000DF93FC011082118212821482158216822B
:1018D000DC0117968AE1ED0119928A95E9F782E019
:1018E0008383DF91CF910895789484B5826084BD1D
:1018F00084B5816084BD85B5826085BD85B5816014
:1019000085BD80916E00816080936E001092810091
:10191000809181008260809381008091810081604C
:10192000809381008091800081608093800080910D
:10193000B10084608093B1008091B0008160809399
:10194000B00080917A00846080937A0080917A0060
:10195000826080937A0080917A008E7F80937A00F3
:1019600080917A00806880937A001092C100A895D7
:1019700080E090E0892B11F00E940000E091B0011E
:10198000F091B10182E08083E091AC01F091AD0172
:101990001082E091AE01F091AF0188E08083109257
:1019A000B801E091B401F091B50186E08083E09147
:1019B000B201F091B301808180618083E091B20136
:1019C000F091B301808188608083E091B201F09151
:1019D000B301808180688083E091B201F091B3010E
:1019E00080818F7D808300E110E0F12CF801F59576
:1019F000E795EE57FF4FE49100FFE295EF70E83076
:101A000008F078C0F0E0EE57FF4FF490C1E0D0E06E
:101A1000E091A001F091A1010190F081E02D6F2DE6
:101A200080EA91E00995DF5FDC13F2CF0F5F1F4F73
:101A3000023F1105D9F606E710E0F8016491611143
:101A400014C042E050E06EE771E080EA91E00E944D
:101A50001609809186018D7F8093860180E090E059
:101A6000892B91F00E9400000FC0E091A001F0913D
:101A7000A1010190F081E02D80EA91E009950F5FCE
:101A80001F4F892BD1F6DDCF41E050E063E071E0DC
:101A900085E891E00E94230F6FEF81E090E00E94C3
:101AA0004B0F809192018F78809392011092880160
:101AB0001092870189E191E00E946C0185E194E038
:101AC00090938401809383010E94850B0E94850B73
:101AD0000E944901A8958091910182FFF7CF0E9451
:101AE000FB05A895A8950E9449010E9483050E94C4
:101AF000160AF8CFCBEFCE0F8ACFE0EAF1E01382DF
:101B0000128288EE93E0A0E0B0E084839583A68300
:101B1000B7838EE491E09183808385EC90E0958794
:101B2000848784EC90E09787868780EC90E0918BA7
:101B3000808B81EC90E0938B828B82EC90E0958B94
:101B4000848B86EC90E0978B868B118E128E138E91
:101B5000148E83E892E00E945F0C82E692E00E947D
:101B60005F0C0E94850B60935E0270935F0280930E
:101B70006002909361028DE392E00E945F0CEDE3BE
:101B8000F2E081E0868380E185830895FC01882767
:101B90009927E89421912032E9F3293010F02E3072
:101BA000C8F32B3241F02D3239F4689404C00E94FE
:101BB000200E820F911D219120532A30C0F31EF474
:101BC000909581959F4F08951F93FC019927882731
:101BD000BC01E89411911032E9F3193010F01E3075
:101BE000C8F31B3251F01D3249F4689406C00E94BC
:101BF0000B0E610F711D811D911D119110531A3033
:101C0000B0F33EF490958095709561957F4F8F4F1E
:101C10009F4F1F910895592F482F372F262F660F5A
:101C2000771F881F991F660F771F881F991F620FE4
:101C3000731F841F951F660F771F881F991F0895B4
:101C40007AE0979F902D879F802D910D1124089504
:101C5000E89409C097FB3EF4909580957095619546
:101C60007F4F8F4F9F4F9923A9F0F92F96E9BB27FC
:101C70009395F695879577956795B795F111F8CF78
:101C8000FAF4BB0F11F460FF1BC06F5F7F4F8F4FE3
:101C90009F4F16C0882311F096E911C0772321F0D9
:101CA0009EE8872F762F05C0662371F096E8862F71
:101CB00070E060E02AF09A95660F771F881FDAF7C8
:101CC000880F9695879597F908950E94780E0C9441
:101CD000E90E0E94DB0E38F00E94E20E20F0952300
:101CE00011F00C94D20E0C94D80E11240C941D0FEC
:101CF0000E94FA0E70F3959FC1F3950F50E0551FA7
:101D0000629FF001729FBB27F00DB11D639FAA2750
:101D1000F00DB11DAA1F649F6627B00DA11D661F9F
:101D2000829F2227B00DA11D621F739FB00DA11DC0
:101D3000621F839FA00D611D221F749F3327A00D7A
:101D4000611D231F849F600D211D822F762F6A2F16
:101D500011249F5750409AF0F1F088234AF0EE0F7B
:101D6000FF1FBB1F661F771F881F91505040A9F7A8
:101D70009E3F510580F00C94D20E0C941D0F5F3FD6
:101D8000E4F3983ED4F3869577956795B795F795E4
:101D9000E7959F5FC1F7FE2B880F911D969587955C
:101DA00097F9089597F99F6780E870E060E00895DB
:101DB0009FEF80EC089500240A9416161706180663
:101DC0000906089500240A9412161306140605063F
:101DD0000895092E0394000C11F4882352F0BB0FD0
:101DE00040F4BF2B11F460FF04C06F5F7F4F8F4F33
:101DF0009F4F089557FD9058440F551F59F05F3F6E
:101E000071F04795880F97FB991F61F09F3F79F01C
:101E100087950895121613061406551FF2CF46959E
:101E2000F1DF08C0161617061806991FF1CF869520
:101E30007105610508940895E894BB276627772704
:101E4000CB0197F90895DC01CB01FC01F999FECF94
:101E500006C0F2BDE1BDF89A319600B40D92415032
:101E60005040B8F70895F999FECF92BD81BDF89A18
:101E7000992780B50895DC01A40FB51F415050404B
:101E800048F0CB01840F951F2E910E944C0F4150BA
:101E90005040D0F70895262FF999FECF92BD81BD0D
:101EA000F89A019700B4021639F01FBA20BD0FB698
:101EB000F894FA9AF99A0FBE08955058BB27AA27AA
:101EC0000E94750F0C94E90E0E94DB0E38F00E9400
:101ED000E20E20F039F49F3F19F426F40C94D80E4A
:101EE0000EF4E095E7FB0C94D20EE92F0E94FA0E57
:101EF00058F3BA17620773078407950720F079F43F
:101F0000A6F50C941C0F0EF4E0950B2EBA2FA02D05
:101F10000B01B90190010C01CA01A0011124FF2796
:101F2000591B99F0593F50F4503E68F11A16F04091
:101F3000A22F232F342F4427585FF3CF4695379590
:101F40002795A795F0405395C9F77EF41F16BA0B55
:101F5000620B730B840BBAF09150A1F0FF0FBB1F03
:101F6000661F771F881FC2F70EC0BA0F621F731F4C
:101F7000841F48F4879577956795B795F7959E3FA9
:101F800008F0B0CF9395880F08F09927EE0F97953A
:101F9000879508950E94D10F6894B1110C941D0F7C
:101FA00008950E94020F88F09F5798F0B92F992743
:101FB000B751B0F0E1F0660F771F881F991F1AF034
:101FC000BA95C9F714C0B13091F00E941C0FB1E06E
:101FD00008950C941C0F672F782F8827B85F39F06D
:101FE000B93FCCF3869577956795B395D9F73EF4CD
:101FF00090958095709561957F4F8F4F9F4F089575
:10200000EE0FFF1F0590F491E02D099481E090E020
:10201000F8940C941A10FB01DC014150504048F038
:1020200001900D920020C9F701C01D92415050400F
:08203000E0F70895F894FFCFDA
:10203800FFFFFFD124DDDE99FF4E04F0013B04C20F
:1020480001D600B8015F040A02E8007504016E02B7
:102058009801450A450A050700020406070707070D
:1020680007070707070707070707070707070707F8
:102078000707070707070707010300000000AD0966
:1020880016094509F409760954096809322E322ED1
:10209800302D72632E3100526F6F6D5F315F4D537B
:1020A8005F315F49443100312E30004F4B000D0A3B
:0220B800000026
:00000001FF
